{
  "transactions": [
    {
      "hash": "0xba2293ba3c0744aa8319916ce5e5fb1ec7e31719d7b19648a168eda2c0eaa47d",
      "transactionType": "CALL",
      "contractName": "LinkToken",
      "contractAddress": "0x0fd9e8d3af1aaee056eb9e802c3a762a667b1904",
      "function": "transferAndCall(address,uint256,bytes)",
      "arguments": [
        "0x343300b5d84D444B2ADc9116FEF1bED02BE49Cf2",
        "3000000000000000000",
        "0xd26e74021d2e6f59b3023d4cd994994e48523600c0669fc8ccca0ef69b78e4d2"
      ],
      "transaction": {
        "from": "0xf44b702b46db9f9dec3a3737f1dd7557b3863acb",
        "to": "0x0fd9e8d3af1aaee056eb9e802c3a762a667b1904",
        "gas": "0x1c12c",
        "value": "0x0",
        "input": "0x4000aea0000000000000000000000000343300b5d84d444b2adc9116fef1bed02be49cf200000000000000000000000000000000000000000000000029a2241af62c000000000000000000000000000000000000000000000000000000000000000000600000000000000000000000000000000000000000000000000000000000000020d26e74021d2e6f59b3023d4cd994994e48523600c0669fc8ccca0ef69b78e4d2",
        "nonce": "0x44",
        "chainId": "0x13882"
      },
      "additionalContracts": [],
      "isFixedGasLimit": false
    }
  ],
  "receipts": [
    {
      "status": "0x1",
      "cumulativeGasUsed": "0x29f20",
      "logs": [
        {
          "address": "0x0fd9e8d3af1aaee056eb9e802c3a762a667b1904",
          "topics": [
            "0xddf252ad1be2c89b69c2b068fc378daa952ba7f163c4a11628f55a4df523b3ef",
            "0x000000000000000000000000f44b702b46db9f9dec3a3737f1dd7557b3863acb",
            "0x000000000000000000000000343300b5d84d444b2adc9116fef1bed02be49cf2"
          ],
          "data": "0x00000000000000000000000000000000000000000000000029a2241af62c0000",
          "blockHash": "0xbeb8506eb05fd9cb40af2473aef9793f9bac18f8cf2e046d5156e4530ce111ac",
          "blockNumber": "0xc44a82",
          "transactionHash": "0xba2293ba3c0744aa8319916ce5e5fb1ec7e31719d7b19648a168eda2c0eaa47d",
          "transactionIndex": "0x1",
          "logIndex": "0x2",
          "removed": false
        },
        {
          "address": "0x0fd9e8d3af1aaee056eb9e802c3a762a667b1904",
          "topics": [
            "0xe19260aff97b920c7df27010903aeb9c8d2be5d310a2c67824cf3f15396e4c16",
            "0x000000000000000000000000f44b702b46db9f9dec3a3737f1dd7557b3863acb",
            "0x000000000000000000000000343300b5d84d444b2adc9116fef1bed02be49cf2"
          ],
          "data": "0x00000000000000000000000000000000000000000000000029a2241af62c000000000000000000000000000000000000000000000000000000000000000000400000000000000000000000000000000000000000000000000000000000000020d26e74021d2e6f59b3023d4cd994994e48523600c0669fc8ccca0ef69b78e4d2",
          "blockHash": "0xbeb8506eb05fd9cb40af2473aef9793f9bac18f8cf2e046d5156e4530ce111ac",
          "blockNumber": "0xc44a82",
          "transactionHash": "0xba2293ba3c0744aa8319916ce5e5fb1ec7e31719d7b19648a168eda2c0eaa47d",
          "transactionIndex": "0x1",
          "logIndex": "0x3",
          "removed": false
        },
        {
          "address": "0x343300b5d84d444b2adc9116fef1bed02be49cf2",
          "topics": [
            "0x1ced9348ff549fceab2ac57cd3a9de38edaaab274b725ee82c23e8fc8c4eec7a",
            "0xd26e74021d2e6f59b3023d4cd994994e48523600c0669fc8ccca0ef69b78e4d2"
          ],
          "data": "0x000000000000000000000000000000000000000000000000000000000000000000000000000000000000000000000000000000000000000029a2241af62c0000",
          "blockHash": "0xbeb8506eb05fd9cb40af2473aef9793f9bac18f8cf2e046d5156e4530ce111ac",
          "blockNumber": "0xc44a82",
          "transactionHash": "0xba2293ba3c0744aa8319916ce5e5fb1ec7e31719d7b19648a168eda2c0eaa47d",
          "transactionIndex": "0x1",
          "logIndex": "0x4",
          "removed": false
        },
        {
          "address": "0x0000000000000000000000000000000000001010",
          "topics": [
            "0x4dfe1bbbcf077ddc3e01291eea2d5c70c2b422b415d95645b9adcfd678cb1d63",
            "0x0000000000000000000000000000000000000000000000000000000000001010",
            "0x000000000000000000000000f44b702b46db9f9dec3a3737f1dd7557b3863acb",
            "0x000000000000000000000000ac75d6efec891724b88b916b36e2ef38bcbec73f"
          ],
          "data": "0x000000000000000000000000000000000000000000000000000b2c5c5fd190000000000000000000000000000000000000000000000000002f1d0a30b784f5dd0000000000000000000000000000000000000000000001e4d490e4544163f0a90000000000000000000000000000000000000000000000002f11ddd457b365dd0000000000000000000000000000000000000000000001e4d49c10b0a13580a9",
          "blockHash": "0xbeb8506eb05fd9cb40af2473aef9793f9bac18f8cf2e046d5156e4530ce111ac",
          "blockNumber": "0xc44a82",
          "transactionHash": "0xba2293ba3c0744aa8319916ce5e5fb1ec7e31719d7b19648a168eda2c0eaa47d",
          "transactionIndex": "0x1",
          "logIndex": "0x5",
          "removed": false
        }
      ],
      "logsBloom": "0x00000000000000000000000000000000000000000300000000000000020000000000000000000000000000000000000000008000000000000000021000000000000000000000000000000008000000800400000000040000000120000020000000000000000000000000000000000000000000000000000080080010000040000000000000020000010000000000000000000020000000000000000000000000200009000000100000000000000000000020000000000000000000000000004000000002000000010001000000000000000000000000040000100000000000000000000000000000c00000000800000000000100000000000000000000100000",
      "type": "0x2",
      "transactionHash": "0xba2293ba3c0744aa8319916ce5e5fb1ec7e31719d7b19648a168eda2c0eaa47d",
      "transactionIndex": "0x1",
      "blockHash": "0xbeb8506eb05fd9cb40af2473aef9793f9bac18f8cf2e046d5156e4530ce111ac",
      "blockNumber": "0xc44a82",
      "gasUsed": "0x13321",
      "effectiveGasPrice": "0x9502f900f",
      "from": "0xf44b702b46db9f9dec3a3737f1dd7557b3863acb",
      "to": "0x0fd9e8d3af1aaee056eb9e802c3a762a667b1904",
      "contractAddress": null
    }
  ],
  "libraries": [],
  "pending": [],
  "returns": {},
  "timestamp": 1728249433,
  "chain": 80002,
  "commit": "48c4527"
}